{
  "_format": "hh-sol-artifact-1",
  "contractName": "PrivateIncomeVerification",
  "sourceName": "contracts/PrivateIncomeVerification.sol",
  "abi": [
    {
      "inputs": [],
      "stateMutability": "nonpayable",
      "type": "constructor"
    },
    {
      "inputs": [],
      "name": "ZamaProtocolUnsupported",
      "type": "error"
    },
    {
      "anonymous": false,
      "inputs": [
        {
          "indexed": true,
          "internalType": "uint256",
          "name": "verificationId",
          "type": "uint256"
        },
        {
          "indexed": true,
          "internalType": "address",
          "name": "user",
          "type": "address"
        },
        {
          "indexed": false,
          "internalType": "uint256",
          "name": "timestamp",
          "type": "uint256"
        },
        {
          "indexed": false,
          "internalType": "bool",
          "name": "meetsThreshold",
          "type": "bool"
        }
      ],
      "name": "IncomeVerified",
      "type": "event"
    },
    {
      "anonymous": false,
      "inputs": [
        {
          "indexed": true,
          "internalType": "uint256",
          "name": "verificationId",
          "type": "uint256"
        },
        {
          "indexed": true,
          "internalType": "address",
          "name": "user",
          "type": "address"
        },
        {
          "indexed": false,
          "internalType": "bool",
          "name": "qualified",
          "type": "bool"
        }
      ],
      "name": "ThresholdVerification",
      "type": "event"
    },
    {
      "anonymous": false,
      "inputs": [
        {
          "indexed": true,
          "internalType": "uint256",
          "name": "verificationId",
          "type": "uint256"
        },
        {
          "indexed": true,
          "internalType": "address",
          "name": "user",
          "type": "address"
        }
      ],
      "name": "VerificationExpired",
      "type": "event"
    },
    {
      "anonymous": false,
      "inputs": [
        {
          "indexed": true,
          "internalType": "uint256",
          "name": "requestId",
          "type": "uint256"
        },
        {
          "indexed": true,
          "internalType": "address",
          "name": "requester",
          "type": "address"
        },
        {
          "indexed": false,
          "internalType": "uint256",
          "name": "timestamp",
          "type": "uint256"
        }
      ],
      "name": "VerificationRequested",
      "type": "event"
    },
    {
      "inputs": [],
      "name": "MIN_VERIFICATION_THRESHOLD",
      "outputs": [
        {
          "internalType": "uint256",
          "name": "",
          "type": "uint256"
        }
      ],
      "stateMutability": "view",
      "type": "function"
    },
    {
      "inputs": [],
      "name": "VERIFICATION_VALIDITY_PERIOD",
      "outputs": [
        {
          "internalType": "uint256",
          "name": "",
          "type": "uint256"
        }
      ],
      "stateMutability": "view",
      "type": "function"
    },
    {
      "inputs": [
        {
          "internalType": "uint256",
          "name": "_verificationId1",
          "type": "uint256"
        },
        {
          "internalType": "uint256",
          "name": "_verificationId2",
          "type": "uint256"
        }
      ],
      "name": "compareIncomes",
      "outputs": [
        {
          "internalType": "bool",
          "name": "",
          "type": "bool"
        }
      ],
      "stateMutability": "view",
      "type": "function"
    },
    {
      "inputs": [],
      "name": "confidentialProtocolId",
      "outputs": [
        {
          "internalType": "uint256",
          "name": "",
          "type": "uint256"
        }
      ],
      "stateMutability": "view",
      "type": "function"
    },
    {
      "inputs": [
        {
          "internalType": "uint256",
          "name": "_verificationId",
          "type": "uint256"
        }
      ],
      "name": "deactivateVerification",
      "outputs": [],
      "stateMutability": "nonpayable",
      "type": "function"
    },
    {
      "inputs": [],
      "name": "getActiveVerificationCount",
      "outputs": [
        {
          "internalType": "uint256",
          "name": "",
          "type": "uint256"
        }
      ],
      "stateMutability": "view",
      "type": "function"
    },
    {
      "inputs": [],
      "name": "getPendingRequestCount",
      "outputs": [
        {
          "internalType": "uint256",
          "name": "",
          "type": "uint256"
        }
      ],
      "stateMutability": "view",
      "type": "function"
    },
    {
      "inputs": [
        {
          "internalType": "uint256",
          "name": "_requestId",
          "type": "uint256"
        }
      ],
      "name": "getRequestInfo",
      "outputs": [
        {
          "internalType": "address",
          "name": "requester",
          "type": "address"
        },
        {
          "internalType": "bool",
          "name": "isPending",
          "type": "bool"
        },
        {
          "internalType": "uint256",
          "name": "requestTime",
          "type": "uint256"
        },
        {
          "internalType": "string",
          "name": "documentHash",
          "type": "string"
        }
      ],
      "stateMutability": "view",
      "type": "function"
    },
    {
      "inputs": [
        {
          "internalType": "address",
          "name": "_user",
          "type": "address"
        }
      ],
      "name": "getUserRequests",
      "outputs": [
        {
          "internalType": "uint256[]",
          "name": "",
          "type": "uint256[]"
        }
      ],
      "stateMutability": "view",
      "type": "function"
    },
    {
      "inputs": [
        {
          "internalType": "address",
          "name": "_user",
          "type": "address"
        }
      ],
      "name": "getUserVerifications",
      "outputs": [
        {
          "internalType": "uint256[]",
          "name": "",
          "type": "uint256[]"
        }
      ],
      "stateMutability": "view",
      "type": "function"
    },
    {
      "inputs": [
        {
          "internalType": "uint256",
          "name": "_verificationId",
          "type": "uint256"
        }
      ],
      "name": "getVerificationInfo",
      "outputs": [
        {
          "internalType": "bool",
          "name": "isVerified",
          "type": "bool"
        },
        {
          "internalType": "bool",
          "name": "isActive",
          "type": "bool"
        },
        {
          "internalType": "uint256",
          "name": "verificationTime",
          "type": "uint256"
        },
        {
          "internalType": "uint256",
          "name": "expiryTime",
          "type": "uint256"
        },
        {
          "internalType": "string",
          "name": "employerHash",
          "type": "string"
        },
        {
          "internalType": "address",
          "name": "verifiedUser",
          "type": "address"
        }
      ],
      "stateMutability": "view",
      "type": "function"
    },
    {
      "inputs": [
        {
          "internalType": "uint256",
          "name": "_verificationId",
          "type": "uint256"
        }
      ],
      "name": "isVerificationValid",
      "outputs": [
        {
          "internalType": "bool",
          "name": "",
          "type": "bool"
        }
      ],
      "stateMutability": "view",
      "type": "function"
    },
    {
      "inputs": [
        {
          "internalType": "uint256",
          "name": "_requestId",
          "type": "uint256"
        },
        {
          "internalType": "string",
          "name": "_employerHash",
          "type": "string"
        },
        {
          "internalType": "bool",
          "name": "_isApproved",
          "type": "bool"
        }
      ],
      "name": "processVerificationRequest",
      "outputs": [],
      "stateMutability": "nonpayable",
      "type": "function"
    },
    {
      "inputs": [],
      "name": "requestCounter",
      "outputs": [
        {
          "internalType": "uint256",
          "name": "",
          "type": "uint256"
        }
      ],
      "stateMutability": "view",
      "type": "function"
    },
    {
      "inputs": [
        {
          "internalType": "uint8",
          "name": "_incomeLevel",
          "type": "uint8"
        },
        {
          "internalType": "uint8",
          "name": "_employmentMonths",
          "type": "uint8"
        },
        {
          "internalType": "string",
          "name": "_documentHash",
          "type": "string"
        }
      ],
      "name": "requestIncomeVerification",
      "outputs": [],
      "stateMutability": "nonpayable",
      "type": "function"
    },
    {
      "inputs": [
        {
          "internalType": "address",
          "name": "_newAuthority",
          "type": "address"
        }
      ],
      "name": "updateVerificationAuthority",
      "outputs": [],
      "stateMutability": "nonpayable",
      "type": "function"
    },
    {
      "inputs": [
        {
          "internalType": "address",
          "name": "",
          "type": "address"
        },
        {
          "internalType": "uint256",
          "name": "",
          "type": "uint256"
        }
      ],
      "name": "userRequests",
      "outputs": [
        {
          "internalType": "uint256",
          "name": "",
          "type": "uint256"
        }
      ],
      "stateMutability": "view",
      "type": "function"
    },
    {
      "inputs": [
        {
          "internalType": "address",
          "name": "",
          "type": "address"
        },
        {
          "internalType": "uint256",
          "name": "",
          "type": "uint256"
        }
      ],
      "name": "userVerifications",
      "outputs": [
        {
          "internalType": "uint256",
          "name": "",
          "type": "uint256"
        }
      ],
      "stateMutability": "view",
      "type": "function"
    },
    {
      "inputs": [],
      "name": "verificationAuthority",
      "outputs": [
        {
          "internalType": "address",
          "name": "",
          "type": "address"
        }
      ],
      "stateMutability": "view",
      "type": "function"
    },
    {
      "inputs": [],
      "name": "verificationCount",
      "outputs": [
        {
          "internalType": "uint256",
          "name": "",
          "type": "uint256"
        }
      ],
      "stateMutability": "view",
      "type": "function"
    },
    {
      "inputs": [
        {
          "internalType": "uint256",
          "name": "",
          "type": "uint256"
        }
      ],
      "name": "verificationRequests",
      "outputs": [
        {
          "internalType": "address",
          "name": "requester",
          "type": "address"
        },
        {
          "internalType": "euint8",
          "name": "claimedIncomeLevel",
          "type": "bytes32"
        },
        {
          "internalType": "euint8",
          "name": "employmentDuration",
          "type": "bytes32"
        },
        {
          "internalType": "bool",
          "name": "isPending",
          "type": "bool"
        },
        {
          "internalType": "uint256",
          "name": "requestTime",
          "type": "uint256"
        },
        {
          "internalType": "string",
          "name": "documentHash",
          "type": "string"
        }
      ],
      "stateMutability": "view",
      "type": "function"
    },
    {
      "inputs": [
        {
          "internalType": "uint256",
          "name": "",
          "type": "uint256"
        }
      ],
      "name": "verifications",
      "outputs": [
        {
          "internalType": "euint8",
          "name": "encryptedIncomeLevel",
          "type": "bytes32"
        },
        {
          "internalType": "euint8",
          "name": "encryptedEmploymentMonths",
          "type": "bytes32"
        },
        {
          "internalType": "bool",
          "name": "isVerified",
          "type": "bool"
        },
        {
          "internalType": "bool",
          "name": "isActive",
          "type": "bool"
        },
        {
          "internalType": "uint256",
          "name": "verificationTime",
          "type": "uint256"
        },
        {
          "internalType": "uint256",
          "name": "expiryTime",
          "type": "uint256"
        },
        {
          "internalType": "string",
          "name": "employerHash",
          "type": "string"
        },
        {
          "internalType": "address",
          "name": "verifiedUser",
          "type": "address"
        }
      ],
      "stateMutability": "view",
      "type": "function"
    },
    {
      "inputs": [
        {
          "internalType": "uint256",
          "name": "_verificationId",
          "type": "uint256"
        },
        {
          "internalType": "uint8",
          "name": "_requiredLevel",
          "type": "uint8"
        }
      ],
      "name": "verifyIncomeThreshold",
      "outputs": [
        {
          "internalType": "bool",
          "name": "",
          "type": "bool"
        }
      ],
      "stateMutability": "view",
      "type": "function"
    }
  ],
  "bytecode": "0x608060405234801562000010575f80fd5b50620000c86200001f620000e7565b80517f9e7b61f58c47dc699ac88507c4f5bb9f121c03808c5676a8078fe583e464970080546001600160a01b03199081166001600160a01b039384161790915560208301517f9e7b61f58c47dc699ac88507c4f5bb9f121c03808c5676a8078fe583e46497018054831691841691909117905560408301517f9e7b61f58c47dc699ac88507c4f5bb9f121c03808c5676a8078fe583e46497028054909216921691909117905550565b5f80546001600160a01b03191633178155600181905560065562000259565b604080516060810182525f80825260208201819052918101919091524660010362000141575060408051606080820183525f8083526020808401829052928401819052835191820184528082529181018290529182015290565b4662aa36a703620001c1575060408051606080820183525f8083526020808401829052928401528251908101835273f0ffdc93b7e186bc2f8cb3daa75d86d1930a433d81527392c920834ec8941d2c77d188936e1f7a6f49c1279181019190915273be0e383937d564d7ff0bc3b46c51f0bf8d5c311a9181019190915290565b46617a690362000240575060408051606080820183525f808352602080840182905292840152825190810183527350157cffd6bbfa2dece204a89ec419c23ef5755d815273e3a9105a3a932253a70f126eb1e3b589c643dd249181019190915273be0e383937d564d7ff0bc3b46c51f0bf8d5c311a9181019190915290565b6040516373cac13b60e01b815260040160405180910390fd5b611cb480620002675f395ff3fe608060405234801561000f575f80fd5b5060043610610148575f3560e01c80638c848f1b116100bf578063b337cf7411610079578063b337cf74146102b9578063b90b0a10146102cc578063bc0ed30d146102f3578063e305c3a4146102fb578063e6ac418a1461030e578063f8565e6214610338575f80fd5b80638c848f1b1461025257806393e30a6a14610265578063973a814e146102705780639c733430146102795780639cc3fe7414610281578063aa39afbd146102a6575f80fd5b80631469fab7116101105780631469fab7146101ca578063263cb6b6146101ea5780634089d49f146101fd5780634b86b2751461022257806358fab4e3146102375780638927b0301461024a575f80fd5b80630830e22e1461014c5780630a5fb636146101685780630b8160451461018b5780630fd7b56a146101ae57806314144a68146101c1575b5f80fd5b61015560015481565b6040519081526020015b60405180910390f35b61017b610176366004611671565b61034b565b604051901515815260200161015f565b61019e610199366004611671565b61039f565b60405161015f94939291906116cb565b6101556101bc36600461171e565b6104f6565b6101556103e881565b6101dd6101d8366004611746565b610521565b60405161015f919061175f565b6101556101f836600461171e565b6105c6565b61021061020b366004611671565b6105df565b60405161015f969594939291906117a2565b61023561023036600461182d565b6106ad565b005b610235610245366004611746565b6109a2565b610155610a42565b61017b61026036600461189c565b610a50565b6101556301e1338081565b61015560065481565b610155610b31565b61029461028f366004611671565b610bb3565b60405161015f969594939291906118c6565b6102356102b4366004611671565b610d62565b6101dd6102c7366004611746565b610e84565b6102df6102da366004611671565b610f27565b60405161015f98979695949392919061190f565b610155610fff565b610235610309366004611968565b61103c565b5f54610320906001600160a01b031681565b6040516001600160a01b03909116815260200161015f565b61017b6103463660046119c5565b6112e9565b5f600154821061035c57505f919050565b5f82815260026020819052604090912090810154610100900460ff1680156103885750600281015460ff165b8015610398575080600401544211155b9392505050565b5f805f606060065485106103ef5760405162461bcd60e51b8152602060048201526012602482015271125b9d985b1a59081c995c5d595cdd08125160721b60448201526064015b60405180910390fd5b5f85815260046020526040902080546001600160a01b031633148061041d57505f546001600160a01b031633145b6104395760405162461bcd60e51b81526004016103e6906119e5565b8054600382015460048301546005840180546001600160a01b039094169360ff90931692819061046890611a0d565b80601f016020809104026020016040519081016040528092919081815260200182805461049490611a0d565b80156104df5780601f106104b6576101008083540402835291602001916104df565b820191905f5260205f20905b8154815290600101906020018083116104c257829003601f168201915b505050505090509450945094509450509193509193565b6003602052815f5260405f20818154811061050f575f80fd5b905f5260205f20015f91509150505481565b60606001600160a01b03821633148061054357505f546001600160a01b031633145b61055f5760405162461bcd60e51b81526004016103e6906119e5565b6001600160a01b0382165f90815260036020908152604091829020805483518184028101840190945280845290918301828280156105ba57602002820191905f5260205f20905b8154815260200190600101908083116105a6575b50505050509050919050565b6005602052815f5260405f20818154811061050f575f80fd5b600460208190525f91825260409091208054600182015460028301546003840154948401546005850180546001600160a01b03909516969395929460ff9094169391929161062c90611a0d565b80601f016020809104026020016040519081016040528092919081815260200182805461065890611a0d565b80156106a35780601f1061067a576101008083540402835291602001916106a3565b820191905f5260205f20905b81548152906001019060200180831161068657829003601f168201915b5050505050905086565b5f546001600160a01b031633146106d65760405162461bcd60e51b81526004016103e6906119e5565b600654841061071c5760405162461bcd60e51b8152602060048201526012602482015271125b9d985b1a59081c995c5d595cdd08125160721b60448201526064016103e6565b5f8481526004602052604090206003015460ff166107725760405162461bcd60e51b815260206004820152601360248201527252657175657374206e6f742070656e64696e6760681b60448201526064016103e6565b816107b85760405162461bcd60e51b8152602060048201526016602482015275115b5c1b1bde595c881a185cda081c995c5d5a5c995960521b60448201526064016103e6565b5f84815260046020526040902060038101805460ff19169055811561099b5760405180610100016040528082600101548152602001826002015481526020016001151581526020016001151581526020014281526020016301e133804261081f9190611a53565b815260200185858080601f0160208091040260200160405190810160405280939291908181526020018383808284375f920182905250938552505084546001600160a01b0316602093840152506001805482526002808452604092839020855181559385015191840191909155908301519082018054606085015115156101000261ff00199315159390931661ffff19909116179190911790556080820151600382015560a0820151600482015560c082015160058201906108e19082611ac3565b5060e09190910151600690910180546001600160a01b0319166001600160a01b039283161790558154165f908152600360209081526040822060018054825480830184559285529290932001555461093890611468565b8054600180546040805142815260208101939093526001600160a01b039093169290917f2eef9ac7385c2e9fab162e0e6d125fd40621d23f122e8f7156972213279ebf4c910160405180910390a360018054905f61099583611b83565b91905055505b5050505050565b5f546001600160a01b031633146109cb5760405162461bcd60e51b81526004016103e6906119e5565b6001600160a01b038116610a215760405162461bcd60e51b815260206004820152601960248201527f496e76616c696420617574686f7269747920616464726573730000000000000060448201526064016103e6565b5f80546001600160a01b0319166001600160a01b0392909216919091179055565b5f610a4b6114c1565b905090565b5f826001548110610a735760405162461bcd60e51b81526004016103e690611b9b565b5f8181526002602081905260409091200154610100900460ff16610aa95760405162461bcd60e51b81526004016103e690611bd2565b5f81815260026020526040902060040154421115610ad95760405162461bcd60e51b81526004016103e690611c09565b5f84815260026020526040902060068101546001600160a01b0316331480610b0a57505f546001600160a01b031633145b610b265760405162461bcd60e51b81526004016103e6906119e5565b506001949350505050565b5f80805b600154811015610bad575f8181526002602081905260409091200154610100900460ff168015610b7657505f818152600260208190526040909120015460ff165b8015610b9257505f818152600260205260409020600401544211155b15610ba55781610ba181611b83565b9250505b600101610b35565b50919050565b5f805f8060605f866001548110610bdc5760405162461bcd60e51b81526004016103e690611b9b565b5f8181526002602081905260409091200154610100900460ff16610c125760405162461bcd60e51b81526004016103e690611bd2565b5f81815260026020526040902060040154421115610c425760405162461bcd60e51b81526004016103e690611c09565b5f88815260026020526040902060068101546001600160a01b0316331480610c7357505f546001600160a01b031633145b610c8f5760405162461bcd60e51b81526004016103e6906119e5565b600281015460038201546004830154600684015460058501805460ff808716966101009004169493926001600160a01b0316908290610ccd90611a0d565b80601f0160208091040260200160405190810160405280929190818152602001828054610cf990611a0d565b8015610d445780601f10610d1b57610100808354040283529160200191610d44565b820191905f5260205f20905b815481529060010190602001808311610d2757829003601f168201915b50505050509150975097509750975097509750505091939550919395565b806001548110610d845760405162461bcd60e51b81526004016103e690611b9b565b5f8181526002602081905260409091200154610100900460ff16610dba5760405162461bcd60e51b81526004016103e690611bd2565b5f81815260026020526040902060040154421115610dea5760405162461bcd60e51b81526004016103e690611c09565b5f82815260026020526040902060068101546001600160a01b0316331480610e1b57505f546001600160a01b031633145b610e375760405162461bcd60e51b81526004016103e6906119e5565b60028101805461ff001916905560068101546040516001600160a01b039091169084907fad2b15c4ec070714da61a856d8aa42f1696e056f88b2b081e07bafef41155a6a905f90a3505050565b60606001600160a01b038216331480610ea657505f546001600160a01b031633145b610ec25760405162461bcd60e51b81526004016103e6906119e5565b6001600160a01b0382165f90815260056020908152604091829020805483518184028101840190945280845290918301828280156105ba57602002820191905f5260205f20908154815260200190600101908083116105a65750505050509050919050565b600260208190525f918252604090912080546001820154928201546003830154600484015460058501805494969560ff808616966101009096041694909190610f6f90611a0d565b80601f0160208091040260200160405190810160405280929190818152602001828054610f9b90611a0d565b8015610fe65780601f10610fbd57610100808354040283529160200191610fe6565b820191905f5260205f20905b815481529060010190602001808311610fc957829003601f168201915b505050600690930154919250506001600160a01b031688565b5f80805b600654811015610bad575f8181526004602052604090206003015460ff1615611034578161103081611b83565b9250505b600101611003565b5f8460ff161161109a5760405162461bcd60e51b815260206004820152602360248201527f496e636f6d65206c6576656c206d75737420626520677265617465722074686160448201526206e20360ec1b60648201526084016103e6565b5f8360ff16116110ff5760405162461bcd60e51b815260206004820152602a60248201527f456d706c6f796d656e74206475726174696f6e206d75737420626520677265616044820152690746572207468616e20360b41b60648201526084016103e6565b806111455760405162461bcd60e51b8152602060048201526016602482015275111bd8dd5b595b9d081a185cda081c995c5d5a5c995960521b60448201526064016103e6565b5f61114f856114f5565b90505f61115b856114f5565b90506040518060c00160405280336001600160a01b0316815260200183815260200182815260200160011515815260200142815260200185858080601f0160208091040260200160405190810160405280939291908181526020018383808284375f920182905250939094525050600654815260046020818152604092839020855181546001600160a01b0319166001600160a01b03909116178155908501516001820155918401516002830155606084015160038301805460ff191691151591909117905560808401519082015560a083015190915060058201906112419082611ac3565b5050335f908152600560209081526040822060065481546001810183559184529190922090910155506112738261150a565b5061127d8161150a565b506112888233611519565b506112938133611519565b506006546040514281523391907fdeb7003ffed8f3df9845e492fd4d38d5871c0b5215d4ce4d14d144e600f7e87a9060200160405180910390a360068054905f6112dc83611b83565b9190505550505050505050565b5f82600154811061130c5760405162461bcd60e51b81526004016103e690611b9b565b5f8181526002602081905260409091200154610100900460ff166113425760405162461bcd60e51b81526004016103e690611bd2565b5f818152600260205260409020600401544211156113725760405162461bcd60e51b81526004016103e690611c09565b8260015481106113945760405162461bcd60e51b81526004016103e690611b9b565b5f8181526002602081905260409091200154610100900460ff166113ca5760405162461bcd60e51b81526004016103e690611bd2565b5f818152600260205260409020600401544211156113fa5760405162461bcd60e51b81526004016103e690611c09565b5f858152600260205260409020600601546001600160a01b031633148061143957505f848152600260205260409020600601546001600160a01b031633145b80610b0a57505f546001600160a01b03163314610b265760405162461bcd60e51b81526004016103e6906119e5565b5f81815260026020908152604091829020600681015492516001815290926001600160a01b03169184917f403a7a7f66beb8e8f302d9abb08ddcd06699a517dbf84df097e841077fed872f910160405180910390a35050565b5f466001036114d05750600190565b4662aa36a7036114e1575061271190565b46617a69036114f057505f1990565b505f90565b5f6115048260ff16600261152b565b92915050565b5f61151582306115e8565b5090565b5f61152483836115e8565b5090919050565b7f9e7b61f58c47dc699ac88507c4f5bb9f121c03808c5676a8078fe583e464970154604051639cd07acb60e01b81525f917f9e7b61f58c47dc699ac88507c4f5bb9f121c03808c5676a8078fe583e4649700916001600160a01b0390911690639cd07acb906115a09087908790600401611c37565b6020604051808303815f875af11580156115bc573d5f803e3d5ffd5b505050506040513d601f19601f820116820180604052508101906115e09190611c67565b949350505050565b5f7f9e7b61f58c47dc699ac88507c4f5bb9f121c03808c5676a8078fe583e46497008054604051635ca4b5b160e11b8152600481018690526001600160a01b03858116602483015292935091169063b9496b62906044015f604051808303815f87803b158015611656575f80fd5b505af1158015611668573d5f803e3d5ffd5b50505050505050565b5f60208284031215611681575f80fd5b5035919050565b5f81518084525f5b818110156116ac57602081850181015186830182015201611690565b505f602082860101526020601f19601f83011685010191505092915050565b60018060a01b03851681528315156020820152826040820152608060608201525f6116f96080830184611688565b9695505050505050565b80356001600160a01b0381168114611719575f80fd5b919050565b5f806040838503121561172f575f80fd5b61173883611703565b946020939093013593505050565b5f60208284031215611756575f80fd5b61039882611703565b602080825282518282018190525f9190848201906040850190845b818110156117965783518352928401929184019160010161177a565b50909695505050505050565b60018060a01b0387168152856020820152846040820152831515606082015282608082015260c060a08201525f6117dc60c0830184611688565b98975050505050505050565b5f8083601f8401126117f8575f80fd5b50813567ffffffffffffffff81111561180f575f80fd5b602083019150836020828501011115611826575f80fd5b9250929050565b5f805f8060608587031215611840575f80fd5b84359350602085013567ffffffffffffffff81111561185d575f80fd5b611869878288016117e8565b90945092505060408501358015158114611881575f80fd5b939692955090935050565b803560ff81168114611719575f80fd5b5f80604083850312156118ad575f80fd5b823591506118bd6020840161188c565b90509250929050565b8615158152851515602082015284604082015283606082015260c060808201525f6118f460c0830185611688565b905060018060a01b03831660a0830152979650505050505050565b5f6101008a8352896020840152881515604084015287151560608401528660808401528560a08401528060c084015261194a81840186611688565b91505060018060a01b03831660e08301529998505050505050505050565b5f805f806060858703121561197b575f80fd5b6119848561188c565b93506119926020860161188c565b9250604085013567ffffffffffffffff8111156119ad575f80fd5b6119b9878288016117e8565b95989497509550505050565b5f80604083850312156119d6575f80fd5b50508035926020909101359150565b6020808252600e908201526d139bdd08185d5d1a1bdc9a5e995960921b604082015260600190565b600181811c90821680611a2157607f821691505b602082108103610bad57634e487b7160e01b5f52602260045260245ffd5b634e487b7160e01b5f52601160045260245ffd5b8082018082111561150457611504611a3f565b634e487b7160e01b5f52604160045260245ffd5b601f821115611abe57805f5260205f20601f840160051c81016020851015611a9f5750805b601f840160051c820191505b8181101561099b575f8155600101611aab565b505050565b815167ffffffffffffffff811115611add57611add611a66565b611af181611aeb8454611a0d565b84611a7a565b602080601f831160018114611b24575f8415611b0d5750858301515b5f19600386901b1c1916600185901b178555611b7b565b5f85815260208120601f198616915b82811015611b5257888601518255948401946001909101908401611b33565b5085821015611b6f57878501515f19600388901b60f8161c191681555b505060018460011b0185555b505050505050565b5f60018201611b9457611b94611a3f565b5060010190565b60208082526017908201527f496e76616c696420766572696669636174696f6e204944000000000000000000604082015260600190565b60208082526017908201527f566572696669636174696f6e206e6f7420616374697665000000000000000000604082015260600190565b60208082526014908201527315995c9a599a58d85d1a5bdb88195e1c1a5c995960621b604082015260600190565b8281526040810160548310611c5a57634e487b7160e01b5f52602160045260245ffd5b8260208301529392505050565b5f60208284031215611c77575f80fd5b505191905056fea26469706673582212207e06588edf89cb94d8ec049e1e954a2fe9450c3d69f213db001db83d3352c79764736f6c63430008180033",
  "linkReferences": {},
  "deployedLinkReferences": {}
}